:1000000099C4B2C4B1C4B0C4AFC4AEC4E9C9ACC42D
:10001000ABC4AAC4A9C488CBA7C4A6C4A5C4A4C49D
:10002000A3C4A2C4A1C4A0C49FC49EC49DC49CC4B4
:100030009BC49AC4000102030405060708090A0BC1
:100040000C0D0E0F10111213141516171819191A7A
:100050001B1C1D1E1E1F2020212222232424252597
:1000600026262727282829292A2A2B2B2B2C2C2DFA
:100070002D2D2E2E2F2F2F30303031313132323284
:100080003333333334343435353535363636363725
:1000900037373738383838393939393A3A3A3A3BD4
:1000A0003B3B3B3B3C3C3C3C3C3D3D3D3D3D3E3E8B
:1000B0003E3E3E3F3F3F3F3F3F404040404040414B
:1000C0004141414141424242424242434343434310
:1000D00043434444444444444545454545454545DA
:1000E00046464646464646474747474747474748A6
:1000F0004848484848484849494949494949494A76
:100100004A4A4A4A4A4A4A4A4B4B4B4B4B4B4B4B47
:100110004B4B4C4C4C4C4C4C4C4C4C4D4D4D4D4D1C
:100120004D4D4D4D4D4E4E4E4E4E4E4E4E4E4E4EF4
:100130004F4F4F4F4F4F4F4F4F4F4F5050505050CA
:1001400050505050505051515151515151515151A5
:100150005151525252525252525252525252525380
:10016000535353535353535353535353545454545B
:100170005454545454545454545555555555555538
:100180005555555555555555565656565656565617
:1001900056565656565657575757575757575757F5
:1001A00057575757575758585858585858585858D5
:1001B00058585858585859595959595959595959B5
:1001C000595959595959595A5A5A5A5A5A5A5A5A96
:1001D0005A5A5A5A5A5A5A5A5B5B5B5B5B5B5B5B77
:1001E0005B5B5B5B5B5B5B5B5B5B5B5C5C5C5C5C5A
:1001F0005C5C5C5C5C5C5C5C5C5C5C5C5C5C5D5D3D
:100200005D5D5D5D5D5D5D5D5D5D5D5D5D5D5D5D1E
:100210005D5D5E5E5E5E5E5E5E5E5E5E5E5E5E5E00
:100220005E5E5E5E5E5E5E5F5F5F5F5F5F5F5F5FE5
:100230005F5F5F5F5F5F5F5F5F5F5F5F60606060CA
:1002400060606060606060606060606060606060AE
:100250006060606161616161616161616161616191
:100260006161616161616161616161626262626279
:10027000626262626262626262626262626262625E
:100280006262626263636363636363636363636342
:10029000636363636363636363636363636464642B
:1002A000646464646464646464646464646464640E
:1002B00064646464646464646565656565656565F6
:1002C00065656565656565656565656565656565DE
:1002D00065656565656666666666666666666666C3
:1002E00066666666666666666666666666666666AE
:1002F0006666676767676767676767676767676790
:10030000676767676767676767676767676767677D
:10031000676868686868686868686868686868685E
:10032000686868686868686868686868686868684D
:10033000696969696969696969696969696969692D
:10034000696969696969696969696969696969691D
:1003500069696A6A6A6A6A6A6A6A6A6A6A6A6A6AFF
:100360006A6A6A6A6A6A6A6A6A6A6A6A6A6A6A6AED
:100370006A6A6A6A6A6B6B6B6B6B6B6B6B6B6B6BD2
:100380006B6B6B6B6B6B6B6B6B6B6B6B6B6B6B6BBD
:100390006B6B6B6B6B6B6B6B6B6C6C6C6C6C6C6CA6
:1003A0006C6C6C6C6C6C6C6C6C6C6C6C6C6C6C6C8D
:1003B0006C6C6C6C6C6C6C6C6C6C6C6C6C6C6C6D7C
:1003C0006D6D6D6D6D6D6D6D6D6D6D6D6D6D6D6D5D
:1003D0006D6D6D6D6D6D6D6D6D6D6D6D6D6D6D6D4D
:1003E0006D6D6D6D6D6D6D6E6E6E6E6E6E6E6E6E34
:1003F0006E6E6E6E6E6E6E6E6E6E6E6E6E6E6E6E1D
:100400006E6E6E6E6E6E6E6E6E6E6E6E6E6E6E6E0C
:100410006F6F6F6F6F6F6F6F6F6F6F6F6F6F6F6FEC
:100420006F6F6F6F6F6F6F6F6F6F6F6F6F6F6F6FDC
:100430006F6F6F6F6F6F6F6F6F6F6F7070707070C7
:1004400070707070707070707070707070707070AC
:10045000707070707070707070707070707070709C
:100460007070707070707070717171717171717184
:10047000717171717171717171717171717171716C
:10048000717171717171717171717171717171715C
:100490007171717171717172727272727272727243
:1004A000727272727272727272727272727272722C
:1004B000727272727272727272727272727272721C
:1004C0007272727272727272737373737373737304
:1004D00073737373737373737373737373737373EC
:1004E00073737373737373737373737373737373DC
:1004F00073737373737373737373737474747474C7
:1005000074747474747474747474747474747474AB
:10051000747474747474747474747474747474749B
:10052000747474747474747474747474747474748B
:10053000747575757575757575757575757575756C
:10054000757575757575757575757575757575755B
:10055000757575757575757575757575757575754B
:100560007575757575757575767676767676767633
:10057000767676767676767676767676767676761B
:10058000767676767676767676767676767676760B
:1005900076767676767676767676767676767676FB
:1005A00076767677777777777777777777777777DE
:1005B00077777777777777777777777777777777CB
:1005C00077777777777777777777777777777777BB
:1005D00077777777777777777777777777777778AA
:1005E000787878787878787878787878787878788B
:1005F000787878787878787878787878787878787B
:10060000787878787878787878787878787878786A
:100610007878787878787878787878787878787959
:10062000797979797979797979797979797979793A
:10063000797979797979797979797979797979792A
:10064000797979797979797979797979797979791A
:10065000797979797979797979797979797979790A
:10066000797A7A7A7A7A7A7A7A7A7A7A7A7A7A7AEB
:100670007A7A7A7A7A7A7A7A7A7A7A7A7A7A7A7ADA
:100680007A7A7A7A7A7A7A7A7A7A7A7A7A7A7A7ACA
:100690007A7A7A7A7A7A7A7A7A7A7A7A7A7A7A7ABA
:1006A0007A7A7A7A7A7A7B7B7B7B7B7B7B7B7B7BA0
:1006B0007B7B7B7B7B7B7B7B7B7B7B7B7B7B7B7B8A
:1006C0007B7B7B7B7B7B7B7B7B7B7B7B7B7B7B7B7A
:1006D0007B7B7B7B7B7B7B7B7B7B7B7B7B7B7B7B6A
:1006E0007B7B7B7B7B7B7B7B7B7B7B7B7B7B7C7C58
:1006F0007C7C7C7C7C7C7C7C7C7C7C7C7C7C7C7C3A
:100700007C7C7C7C7C7C7C7C7C7C7C7C7C7C7C7C29
:100710007C7C7C7C7C7C7C7C7C7C7C7C7C7C7C7C19
:100720007C7C7C7C7C7C7C7C7C7C7C7C7C7C7C7C09
:100730007C7C7C7C7C7C7C7C7C7D7D7D7D7D7D7DF2
:100740007D7D7D7D7D7D7D7D7D7D7D7D7D7D7D7DD9
:100750007D7D7D7D7D7D7D7D7D7D7D7D7D7D7D7DC9
:100760007D7D7D7D7D7D7D7D7D7D7D7D7D7D7D7DB9
:100770007D7D7D7D7D7D7D7D7D7D7D7D7D7D7D7DA9
:100780007D7D7D7D7D7D7D7D7E7E7E7E7E7E7E7E91
:100790007E7E7E7E7E7E7E7E7E7E7E7E7E7E7E7E79
:1007A0007E7E7E7E7E7E7E7E7E7E7E7E7E7E7E7E69
:1007B0007E7E7E7E7E7E7E7E7E7E7E7E7E7E7E7E59
:1007C0007E7E7E7E7E7E7E7E7E7E7E7E7E7E7E7E49
:1007D0007E7E7E7E7E7E7E7E7E7E7F7F7F7F7F7F33
:1007E0007F7F7F7F7F7F7F7F7F7F7F7F7F7F7F7F19
:1007F0007F7F7F7F7F7F7F7F7F7F7F7F7F7F7F7F09
:100800007F7F7F7F7F7F7F7F7F7F7F7F7F7F7F7FF8
:100810007F7F7F7F7F7F7F7F7F7F7F7F7F7F7F7FE8
:100820007F7F7F7F7F7F7F7F7F7F7F7F7F7F7F7FD8
:100830007F7F7F7F000010002000300040005000CC
:100840006000700080009000A000B000C000D000E8
:10085000E000F000000110012001300140015001D2
:100860006001700180019001B001C001D001E00180
:10087000F001100220024002500270028002A00229
:10088000C002E00200032003400360039003B003B2
:10089000E0030004300460049004C0040005300547
:1008A0007005B005F00530067006B0060007500769
:1008B000A007F0075008B00810097009E009400AC5
:1008C000C00A300BB00B300CB00C400DE00D700EB8
:1008D000100FC00F70102011E011B01280135014CF
:1008E00040152016201720183019401A701BA01C24
:1008F000E01D301F8020F021702300259026402825
:10090000102AE02BD02DC02FE03110345036B038F3
:10091000303BC03D7040404330464049704CD04F62
:100920004053F056B05AB05ED0622067A06B507052
:100930004075607A11241FBECFEFD4E0DEBFCDBF7B
:1009400011E0A0E0B1E0E6E0F8E102C005900D9210
:10095000A030B107D9F712E0A0E0B1E001C01D92CC
:10096000AA3CB107E1F723C04BCB4EEE51E027E1A3
:1009700031E0F901DA011D92119281E0EE3DF807B4
:10098000D1F3CCF3F8948FEE91E09093BB02809377
:10099000BA023093BF022093BE02509312014093DB
:1009A00011013093C1022093C00278940895CFEFD3
:1009B000D4E0DEBFCDBF1ED500D6D7DFB2D4E8D499
:1009C0001092BD028091BD0299278130910511F1ED
:1009D000823091051CF4892B41F0F4CF82309105CF
:1009E000A1F1039709F4AFC0EDCF6CE082E038D5F8
:1009F00080EF8093E901439A429A419A409A4F9B33
:100A000003C081EF8093E9018091E901813FD1F634
:100A100081E0A7C05E9A64E085EE91E0B8D0809353
:100A2000E9015E98833F61F2A0DFC7D57AD4D2D6C0
:100A3000D2D688E190E028E00FB6F894A89580938C
:100A400060000FBE209360008BC0A895F6D2809105
:100A500016018F718093C602882311F05E9A01C03F
:100A60005E982091C60224FF02C0439801C0439AB9
:100A700020FF02C0429801C0429A22FF02C0419862
:100A800001C0419A21FF02C0409801C0409A4F998D
:100A900010C080911301909114010196909314015C
:100AA000809313018C52914040F084EF8093E901D0
:100AB00004C01092140110921301283021F080918B
:100AC000E901843F31F58091C20281608093C202C6
:100AD0008091BC028F5F8093BC028931F8F0109244
:100AE000BD028FD642DF69D51CD474D663E070E0B6
:100AF0008091E3011DD564E070E08091E40118D598
:100B00005E9888E10FB680936000109260000FBE7F
:100B100059CF8091C2028E7F8093C2028091C4021D
:100B20009091C5028A3F910508F48FCF83E08093AE
:100B3000BD0243D5F6D388E10FB6809360001092D2
:100B400060000FBE3FCF5E9A64E085EE91E01FD05B
:100B50008093E9015E98833F39F02FD5E2D33FD6E9
:100B600082E08093BD022ECF4CD6FFDE26D5D9D3AE
:100B700031D626CF80E0309B81E0319B8260329B72
:100B80008460339B8860349B806199270895CF925D
:100B9000DF92EF92FF920F931F93CF93DF93CDB726
:100BA000DEB723970FB6F894DEBF0FBECDBF6C0142
:100BB000E62E43D58DE789838091E3018A83809176
:100BC000E4018B8343E0BE016F5F7F4F80EACBD4AB
:100BD000EFD481EF8093E9018601FF24FE1470F5C4
:100BE000F801808173D580D583D562E086EB88D506
:100BF000813009F440C0F80180815ED575D52A9A0C
:100C000062E086EB7DD52A988130A1F05B9881E681
:100C10009BD481E699D4898381E696D48A835B9AB2
:100C200089818D3739F48A81833121F4F8018081FB
:100C3000992723C00F5F1F4FF394D0CF4F9910C057
:100C40008091130190911401019690931401809367
:100C500013018C52914040F080EF8093E90104C071
:100C60001092140110921301189905C08091E901A6
:100C7000813F09F4B1CF83EF90E023960FB6F8944B
:100C8000DEBF0FBECDBFDF91CF911F910F91FF90BF
:100C9000EF90DF90CF9008955F926F927F928F9246
:100CA0009F92AF92BF92CF92DF92EF92FF920F93FB
:100CB0001F93CF93DF93CDB7DEB723970FB6F8948A
:100CC000DEBF0FBECDBF3C01562E4A01B6D48DE724
:100CD000898383E18A831B8243E0BE016F5F7F4F7C
:100CE00080EA41D465D4CC24DD24C814D90408F0AA
:100CF00040C08301EE24FF24A52CBB24EA14FB048E
:100D0000A0F5F8018081D8D4EFD42A9A63E08AEE66
:100D1000F7D42A98813019F1F8018081D7D4E4D42E
:100D2000E7D462E086EBECD4813019F15B9881E680
:100D30000BD481E609D4898381E606D48A8381E6CF
:100D400003D48B835B9A89818D3749F48A818093A0
:100D5000E3018B818093E40182EF90E00CC00F5F90
:100D60001F4F0894E11CF11CC9CF0894C11CD11C71
:100D7000BCCF83EF90E023960FB6F894DEBF0FBE92
:100D8000CDBFDF91CF911F910F91FF90EF90DF903A
:100D9000CF90BF90AF909F908F907F906F905F901B
:100DA000089547E151E02DE130E0E091C002F0917B
:100DB000C10211921192F093C102E093C002EF5D63
:100DC000F14020F05093C1024093C00221503040C6
:100DD00037FFEBCF0895CF92DF92FF920F931F93CF
:100DE000CF93DF93FF24C0E0D0E00DE011E083EE6D
:100DF000C82E81E0D82EF60181916F015DD474D4A4
:100E00002A9A63E08FEF7CD42A98813051F4F394CE
:100E1000F7E0FF15A0F48091E90199278E7F90708B
:100E200015C0F80180819181805990409093850090
:100E3000809384008091E9018160992707C0219601
:100E40000E5F1F4FC230D105B4F2CDCFDF91CF91ED
:100E50001F910F91FF90DF90CF900895CF93DF9374
:100E6000CDB7DEB721970FB6F894DEBF0FBECDBF6A
:100E70005B9880EA6CD38091C20269D38091C302EF
:100E800066D36EEE71E04DE150E0E0911101F0911A
:100E9000120181919927382F2227F0931201E093B4
:100EA00011018191280F311DCF01F0931201E093C0
:100EB0001101865B924020F0709312016093110142
:100EC00037FF05C0EE27FF27E21BF30B01C0F90136
:100ED00094E0F595E7959A95E1F7F770EC5CFF4F94
:100EE000949137FD90688DB589839EBD41505040E7
:100EF00057FFCBCF4091000142FD17C02091BA02AD
:100F00003091BB022C7FC901889790931201809386
:100F100011018E5E914030F420563F4F3093120104
:100F2000209311014460409300010DB407FEFDCFF2
:100F30005B9A21960FB6F894DEBF0FBECDBFDF914E
:100F4000CF910895E82FFF27EF77F070EE0FFF1F86
:100F5000EC5CF74F2591349187FF05C088279927CE
:100F6000821B930B0895C901089508950F931F9351
:100F7000CF93DF93CDB7DEB721970FB6F894DEBFDE
:100F80000FBECDBF5B9881E6DFD281E6DDD28093D4
:100F9000150181E6D9D28093160181E68EBD0DB48C
:100FA00007FEFDCF0DE110E09EB581E68EBD892FD5
:100FB000C9DF9C01E091C002F091C102892F990F15
:100FC000990B81932193F093C102E093C002EF5DEE
:100FD000F14030F087E191E09093C1028093C0022C
:100FE0000150104017FFE0CF4091000143FD16C0B3
:100FF0002091BE023091BF02C9018C979093C1022B
:101000008093C0028751914030F424563F4F309373
:10101000C1022093C0024860409300018DB58983CE
:101020009EB55B9A21960FB6F894DEBF0FBECDBF7A
:10103000DF91CF911F910F910895EF92FF920F933F
:101040001F93CF93DF93CDB7DEB722970FB6F894F7
:10105000DEBF0FBECDBF81E091E09093C8028093C8
:10106000C70200E010E053EEE52E51E0F52EE00E51
:10107000F11EF70180812AD337D3B99AE091C702D4
:10108000F091C80280813296F093C802E093C702C3
:101090008093B300B99BFECF2BD362E08BED30D3AE
:1010A000F701808109D320D32A9AB99AE091C70227
:1010B000F091C80280813296F093C802E093C70293
:1010C0008093B300B99BFECFFE01319698012F5F4C
:1010D0003F4F4A9904C0E00FF11F84E003C0E00FC6
:1010E000F11F85E080832A988901223031050CF4B4
:1010F000BACF1092B10083B5826083BD1092B20066
:10110000B99A8981843019F08A81843031F42EDFD4
:101110001092C5021092C4020AC043DE8091C4023C
:101120009091C50201969093C5028093C4023BD270
:101130002091150120FF13C08981843081F48091B2
:10114000EA019091EB0101979093EB018093EA0102
:1011500097FF0EC01092EB011092EA0109C0809136
:10116000EA019091EB0102969093EB018093EA01E2
:1011700021FF13C08A81843081F48091EC01909129
:10118000ED0101979093ED018093EC0197FF0EC064
:101190001092ED011092EC0109C08091EC01909148
:1011A000ED0102969093ED018093EC018091EA01AC
:1011B0009091EB01885893419CF09091E301892F25
:1011C000865F8093E3018A3218F09D519093E3018A
:1011D0001092EB011092EA011092ED011092EC01D5
:1011E0008091EC019091ED01885893419CF0909191
:1011F000E401892F865F8093E401823518F09D51C8
:101200009093E4011092EB011092EA011092ED012B
:101210001092EC018091E4019091E301891B80938D
:10122000C3021CDEC5D122960FB6F894DEBF0FBEF6
:10123000CDBFDF91CF911F910F91FF90EF90089557
:10124000BC0197FF05C044275527481B590B01C017
:10125000AC01E4EBF8E0859194914817590718F434
:1012600020E230E002C020E630E0F901E20FF31F97
:10127000EC5CF74F859194914817590718F4205169
:10128000304002C0205F3F4FF901E20FF31FEC5CDA
:10129000F74F859194914817590718F4285030401A
:1012A00002C0285F3F4FF901E20FF31FEC5CF74FDC
:1012B000859194914817590718F42450304002C082
:1012C0002C5F3F4FF901E20FF31FEC5CF74F859164
:1012D00094914817590718F42250304002C02E5FED
:1012E0003F4FF901E20FF31FEC5CF74F85919491AA
:1012F0004817590718F42150304002C02F5F3F4F64
:10130000F901E20FF31FEC5CF74F859194914817B8
:10131000590710F42150304077FD2068822F99271B
:10132000089589E090E090930201809301018BE998
:1013300090E0909304018093030188EB90E09093F8
:101340000601809305018AE491E09093080180935F
:101350000701109200011092E9011092BC02109254
:10136000140110921301109215011092160110929F
:10137000C2021092C3021092EB011092EA01109285
:10138000ED011092EC011092C5021092C402089572
:101390008AE08093E5018EE18093E60182E3809309
:1013A000E70186E48093E80183E090E0B5D0809384
:1013B000E30184E090E0B0D08093E4018091E30108
:1013C0008350873218F082E08093E3018091E4013A
:1013D0008B52873218F08AE28093E40108950895D1
:1013E0001F920F920FB60F9211240F900FBE0F9005
:1013F0001F90189581E085B98EE284B98FE088B995
:1014000087B91BB88AE58AB9089592E094BD15BCE6
:1014100016BC87BDA99A65BD08959C01942F88E0EC
:10142000809381003093850020938400709389001D
:1014300060938800B19A982B90938100089580E57D
:101440008CBD81E08DBD08958CE58CBD81E08DBDA6
:1014500008958EBD0DB407FEFDCF8EB59927089572
:10146000982FF894A8959770906480916000886197
:101470008093600090936000789483B7817F862B7F
:1014800083BF83B7816083BF889583B78E7F83BF17
:1014900008958FE790E09093890080938800809171
:1014A00088009091890090938B0080938A0080E857
:1014B000809380008093820080E48093800010926B
:1014C0008500109284001092C5001092C40082EC36
:1014D0008093C20088E18093C10083E090E0909304
:1014E000C5008093C4008FE08093810080916F00DD
:1014F000826080936F0078940895109281008091AB
:101500006F008D7F80936F001092C1008091C100A9
:101510008F7D8093C1000895F999FECF92BD81BD62
:10152000F89A8FEF90E092BD81BD80B5992708951C
:10153000F999FECF72BD61BD80BDFA9AF99A8FEF1D
:1015400090E092BD81BD089584DF9927089581DFE1
:1015500008951F93162F5B9880627BDF812F79DFC0
:101560005B9A1F910895EF92FF921F93CF93DF93A1
:101570007B01142F5B986DDF812F9927009739F03D
:10158000EC01F70181917F0164DF2197D1F75B9A2C
:10159000DF91CF911F91FF90EF9008955B9881EEBE
:1015A00058DF5B9A08955B9882EE53DF5B9A08954B
:1015B0005B9883EE4EDF5B9A0895CF93DF93CDB7B0
:1015C000DEB723970FB6F894DEBF0FBECDBF37DF6F
:1015D00080E090E0A1DF898381E090E09DDF8A8355
:1015E00082E090E099DF8B836CE780E0B2DF60E01F
:1015F00081E0AFDF61E082E0ACDF61E083E0A9DFA2
:101600006FE086E0A6DF43E0BE016F5F7F4F8AE2B6
:10161000AADF43E0BE016F5F7F4F80E3A4DF60E29B
:1016200081E197DFC0DFBADF23960FB6F894DEBF03
:101630000FBECDBFDF91CF9108956CE780E089DFC9
:1016400063E081E186DF0895CF93DF93CDB7DEB706
:1016500023970FB6F894DEBF0FBECDBFF0DE8AEA47
:1016600089838A838B8360E780E073DF60E081E0B9
:1016700070DF61E082E06DDF61E083E06ADF6FE0F0
:1016800086E067DF43E0BE016F5F7F4F8AE26BDF7A
:1016900043E0BE016F5F7F4F80E365DF60E281E181
:1016A00058DF81DF7BDF23960FB6F894DEBF0FBED5
:1016B000CDBFDF91CF9108951F93182F6BE380E08A
:1016C00048DF612F85E045DF1F9108951F93182F94
:1016D0006AE580E03EDF612F85E03BDF1F910895E2
:1016E00068E780E036DF089560E787E032DF08953D
:1016F0002A9A61E08CE389DEA99BFECF2A9808959F
:1017000084DEA99B03C081E090E0089589B1992708
:1017100096958795969587959C012170307080FDF0
:10172000F0CFC901089508951F920F920FB60F923E
:1017300011248F939F93AF93BF93EF93FF93E09107
:10174000BA02F091BB028091C6008193F093BB0274
:10175000E093BA02A091BE02B091BF028D91B09306
:10176000BF02A093BE028093C600E65BF24030F059
:101770008EEE91E09093BB028093BA02AF5DB140D0
:1017800030F087E191E09093BF028093BE02809198
:10179000C9028C3328F083E08093B1001092C90213
:1017A0008091C9028F5F8093C902FF91EF91BF9131
:1017B000AF919F918F910F900FBE0F901F90189532
:1017C0001F93162F5D98806844DE812F42DE5D9A5C
:1017D0001F91089508951092C9025BDE0895F89450
:1017E0001092B10083B5826083BD1092B200B99AA5
:1017F0008091C9028A3318F082508093C90278948C
:0618000008957BDE08954F
:00000001FF
